:020000040800F2
:10000000005000206D130008F7050008F9050008EE
:1000100000000000000000000000000000000000E0
:10002000000000000000000000000000FB050008C8
:100030000000000000000000FD050008FF050008AA
:10004000BD130008BD130008BD130008BD13000850
:10005000BD130008BD130008BD130008BD13000840
:10006000BD130008BD130008BD130008BD13000830
:10007000BD130008BD130008BD130008BD13000820
:10008000BD130008BD130008BD13000800000000E8
:10009000BD130008BD130008BD130008BD13000800
:1000A000BD130008BD130008BD130008BD130008F0
:1000B000BD130008BD130008BD130008BD130008E0
:1000C00010B5064C2378002B07D1054B002B02D02E
:1000D000044800E000BF0123237010BD0C00002085
:1000E00000000000C0130008044B10B5002B03D023
:1000F0000349044800E000BF10BDC04600000000F6
:1001000010000020C0130008002243088B4274D363
:1001100003098B425FD3030A8B4244D3030B8B4208
:1001200028D3030C8B420DD3FF22090212BA030C11
:100130008B4202D31212090265D0030B8B4219D3F2
:1001400000E0090AC30B8B4201D3CB03C01A524112
:10015000830B8B4201D38B03C01A5241430B8B425A
:1001600001D34B03C01A5241030B8B4201D30B0343
:10017000C01A5241C30A8B4201D3CB02C01A52416A
:10018000830A8B4201D38B02C01A5241430A8B422D
:1001900001D34B02C01A5241030A8B4201D30B0216
:1001A000C01A5241CDD2C3098B4201D3CB01C01A30
:1001B000524183098B4201D38B01C01A524143093A
:1001C0008B4201D34B01C01A524103098B4201D328
:1001D0000B01C01A5241C3088B4201D3CB00C01A95
:1001E000524183088B4201D38B00C01A524143080D
:1001F0008B4201D34B00C01A5241411A00D2014632
:10020000524110467047FFE701B5002000F006F8A4
:1002100002BDC0460029F7D076E770477047C04658
:10022000002B11D1002A0FD1002900D1002802D0C3
:100230000021C943081C07B4024802A140180290DB
:1002400003BDC046D9FFFFFF03B4684601B502985D
:1002500000F02EF8019B9E4602B00CBC7047C046D1
:10026000F0B515042D0C0F0001002E00C646844683
:100270000004140C000C090C46434D4360436143D9
:100280004019340C241800B5A54203D9802040023F
:1002900080464144250C6D18614659437A43300429
:1002A00049192404000C2018891880BCB846F0BDF8
:1002B000F0B557464E464546DE46E0B504000D0013
:1002C0009246994683B08B4230D82DD0494650464D
:1002D00000F0BAF829000600200000F0B5F8331A43
:1002E0009846203B9B4633D45A4653469340424659
:1002F0001F00534693401E00AF423AD8AF4200D190
:1003000078E05B46A41BBD41002B00DA75E00022BB
:1003100000230092019301235A4693400193012345
:1003200042469340009328E08242CFD90022002326
:10033000009201930C9B002B01D01C605D60009823
:10034000019903B0F0BCBB46B246A946A046F0BD39
:10035000424620239B1A5246DA40414613004A4641
:100360008A40170042461F43534693401E00AF4247
:10037000C4D900220023009201934346002BD9D018
:10038000FB0772081A4346467B080EE0AB4201D1D8
:10039000A2420CD8A41A9D41012024196D410021CC
:1003A000013E24184D41002E06D0AB42EED9013E4D
:1003B00024196D41002EF8D1009801995B4600196F
:1003C0006941002B24DB2B005A464446D3402A00C7
:1003D000E2401C005B461500002B2ADB26009E40F5
:1003E000330026004746BE403200801A99410090F3
:1003F00001919FE7A342BCD883E742462023002116
:100400009B1A0022009101920122DA40019286E7B4
:10041000424620239B1A2A0046469A402300F34076
:10042000444613432A00E2401C005B461500002BA3
:10043000D4DA42462F002023260097409B1ADE4044
:100440003B003343CDE7C04610B5002903D100F08F
:1004500007F8203002E0081C00F002F810BDC0468A
:100460001C2101231B04984201D3000C10391B0AE4
:10047000984201D3000A08391B09984201D30009A8
:10048000043902A2105C40187047C04604030202FF
:1004900001010101000000000000000070B500260D
:1004A0000C4D0D4C641BA410A64209D1002600F08F
:1004B00087FF0A4D0A4C641BA410A64205D170BDEB
:1004C000B300EB5898470136EEE7B300EB58984776
:1004D0000136F2E7FC130008FC130008FC130008C7
:1004E0000014000803008218934200D1704719706D
:1004F0000133F9E772B6FEE700B59FB0382200215C
:1005000010A8FFF7EFFF142200210BA8FFF7EAFF66
:100510002822002101A8FFF7E5FF1A490B681A4AB3
:100520001A4080231B0113430B60102310930F3BD1
:10053000179300231893A022120219921A9310A85D
:1005400000F028F9002817D10F230B9300230C93F8
:100550000D930E930F9300210BA800F0E7FB0028EA
:100560000CD1022301930023059301A800F0CAFCDB
:10057000002805D11FB000BDFFF7BCFFFFF7BAFF91
:10058000FFF7B8FF00700040FFE7FFFF00B587B03E
:100590000A4AD16A01231943D162D26A1A400092F1
:1005A000009A202201920293002303930493A02037
:1005B00001A9C00500F0B0FD07B000BD0010024069
:1005C00070B500F057F8FFF797FFFFF7DFFFA025A2
:1005D000ED0501222021280000F06CFEFA246400C1
:1005E000200000F06DF82021280000F069FE2000B6
:1005F00000F066F8EBE7FEE7FEE77047704710B5DE
:1006000000F04CF810BD0000054B5A6B01210A4365
:100610005A63996B802252050A439A637047C04619
:100620000010024010B504000F4B1978FA2080002A
:10063000FFF76AFD01000D4B1868FFF765FD00F03C
:1006400077FE00280DD1032C01D901200AE00130EA
:1006500000222100404200F03BFE054B1C600020C0
:1006600000E0012010BDC04600000020080000206E
:100670000400002010B5084A136840210B431360A2
:100680000020FFF7CFFF041E02D00124200010BD80
:10069000FFF7BAFFFAE7C04600200240034A11689C
:1006A000034B1B785B1813607047C046280000207E
:1006B00000000020014B18687047C0462800002049
:1006C00070B50400FFF7F6FF0500631C02D0044B71
:1006D0001B78E418FFF7EEFF401BA042FAD370BD71
:1006E0000000002010B5264BDA680C231340082BBD
:1006F00042D00C2B11D0042B09D0214B5A68520B3D
:1007000007231340013380200002984010BD1C4B8A
:100710001B68DB0632D51B48F8E7910C0F230B4012
:100720001949C85C920D03231A40541C144BDB6812
:10073000DB0309D5154A00230021FFF791FD2200B4
:100740000023FFF76DFDE1E70D4B1B68DB0609D5C4
:100750000C4A00230021FFF783FD22000023FFF74E
:100760005FFDD3E70A4A00230021FFF779FD22004D
:100770000023FFF755FDC9E70448C7E70448C5E76C
:100780000010024000093D00E813000800127A0042
:100790000024F400F0B583B0041E00D19FE2C54BE5
:1007A000DA680C251540DE6880235B021E40036872
:1007B000DB0736D5082D2CD00C2D28D0636880227D
:1007C0005202934255D0A022D202934258D0B94B44
:1007D0001A68B9490A401A601A68802149020A4019
:1007E0000192019A1A68B5490A401A606368002BA1
:1007F00052D0FFF75FFF0700AE4B1B689B0310D47E
:10080000FFF758FFC01B6428F6D9032068E2002ECA
:10081000D4D0A84B1B689B0303D56368002B00D181
:1008200060E223689B076DD5E3689A0605D5A14869
:10083000026820210A4302608B43042D3CD00C2D1A
:1008400038D0002B00D1B0E09A490A6809208243D1
:1008500013430B60FFF72EFF0600964B1B685B07E8
:1008600000D599E0FFF726FF801B0228F5D9032069
:1008700036E2904A116880235B020B431360B5E7B0
:100880008C4B19688022D2020A431A6019688022B0
:1008900052020A431A60A9E7FFF70CFF0700854BD5
:1008A0001B689B03BDD5FFF705FFC01B6428F6D965
:1008B000032015E2002EC4D17E4A1268520702D5E9
:1008C000002B00D110E27B4E72687D490A402169FD
:1008D00009020A437260326809218A431343336074
:1008E000FFF700FFF26812090F231340754AD35C2B
:1008F000D840754B1860754B1868FFF793FE0028B9
:1009000000D0EDE12368DB062DD5002D60D1694BC9
:100910001B689B0503D5E369002B00D1E6E1654A1E
:1009200053686B490B40616A0B43536053681B0269
:100930001B0A216A09060B435360636A590B013194
:1009400080231B028B40D16809090F220A405D49B0
:100950008A5CD3405C4A13605C4B1868FFF762FE08
:10096000002800D0BCE123681B077DD56369002BFC
:1009700067D0504A136D01210B431365FFF79AFEB0
:1009800006004C4B1B6D9B076ED4FFF793FE801B3C
:100990000228F6D90320A3E146494B68484A134090
:1009A0002269120213434B60ACE7424A13680121EB
:1009B0008B431360FFF77EFE06003E4B1B685B0710
:1009C000A0D5FFF777FE801B0228F6D9032087E128
:1009D000E369002B22D0374A116880235B000B4368
:1009E0001360FFF767FE0600324B1B689B0506D4B9
:1009F000FFF760FE801B0228F6D9032070E12D4A24
:100A0000536833490B40616A0B43536053681B02C0
:100A10001B0A216A09060B435360A4E7254A1368A1
:100A20002C490B401360FFF745FE0600214B1B6865
:100A30009B0598D5FFF73EFE801B0228F6D90320C0
:100A40004EE11C4A136D01218B431365FFF732FE03
:100A50000600184B1B6D9B0706D5FFF72BFE801B6E
:100A60000228F6D903203BE123685B0700D48EE01F
:100A7000104B9B6BDB001BD40E4A916B80235B05F4
:100A80000B4393630126144B1B68DB0528D5A36831
:100A900080225200934237D0002B4DD1054B1A6D66
:100AA0000C490A401A651A6D0C490A401A6531E072
:100AB0000026E8E700100240FFFFFEFFFFFFFBFFFC
:100AC000FFE0FFFFD813000808000020040000200A
:100AD000FF1FFFFFFFFEFFFF00700040FFFBFFFF57
:100AE000884A116880235B000B431360FFF7E2FD27
:100AF0000700844B1B68DB05C9D4FFF7DBFDC01B77
:100B00006428F6D90320EBE07F4A116D80235B0057
:100B10000B431365A368002B28D0FFF7CBFD07001C
:100B2000794B1B6D9B0530D4FFF7C4FDC01B774B81
:100B30009842F5D90320D3E0A022D200934209D0F5
:100B4000714B1A6D72490A401A651A6D71490A4053
:100B50001A65DFE76C4B196D013AFF3A0A431A65D3
:100B6000196D802252000A431A65D3E7FFF7A2FDF0
:100B70000700654B1B6D9B0507D5FFF79BFDC01B51
:100B8000624B9842F5D90320AAE0012E21D02368B8
:100B90009B063CD5A369002B21D05B4B99680120B3
:100BA000014399605A6B02435A635B4A116A80237E
:100BB0009B010B431362FFF77DFD0600524B9B68C0
:100BC0009B0724D4FFF776FD801B0228F6D903206B
:100BD00086E04D4A936B51490B409363D7E74A4AED
:100BE000936801218B4393604B4A136A4C490B4035
:100BF0001362FFF75FFD0600434B9B689B0706D51A
:100C0000FFF758FD801B0228F6D9032068E0A36A8D
:100C1000002B00D16CE00C2D49D0022B12D03A4AA7
:100C2000136840490B401360FFF744FD0400364B46
:100C30001B689B0139D5FFF73DFD001B0228F6D943
:100C400003204DE0304A136836490B401360FFF72C
:100C500031FD05002C4B1B689B0106D5FFF72AFDD3
:100C6000401B0228F6D903203AE02749CB682E4AD8
:100C70001340E26A206B0243606B02431343CB6074
:100C80000A6880235B0413430B60FFF713FD040025
:100C90001D4B1B689B0106D4FFF70CFD001B0228AF
:100CA000F6D903201CE000201AE0002018E0012BF8
:100CB00020D0154BDA6880235B021340E16A8B4237
:100CC0001AD1F0239B031340216B8B4216D1C02312
:100CD0001B041A40636B9A4212D1002000E00120ED
:100CE00003B0F0BD0120FBE70120F9E70120F7E7A1
:100CF0000020F5E70120F3E70120F1E70120EFE70D
:100D00000120EDE700700040001002408813000051
:100D1000FFFEFFFFFFFBFFFF00000140FFFFFFEFB3
:100D2000FFDFFFFFFFFFFFFEFFFF02FF70B50500C3
:100D30000C00002800D1D1E06A4B1A68012313404F
:100D40008B4219D32B689B0706D5674AD368F021DD
:100D50008B43A9680B43D3602B68DB077BD56B689B
:100D6000022B20D0032B40D0012B44D05E4A1268C6
:100D700092051DD4012099E05A4A136801218B4342
:100D800023431360FFF796FC0600564B1A680123B5
:100D90001340A342D6D0FFF78DFC801B534A9042EC
:100DA000F3D9032082E0504A1268920300D497E0FE
:100DB0004D49CA68032082431343CB60FFF77AFC96
:100DC00006006B68022B1CD0032B28D0012B34D0DB
:100DD000454BDB680C221A423DD0FFF76BFC801BB1
:100DE000424B9842F4D9032060E03F4A12689201D6
:100DF000DED401205AE03C4A12685207D8D40120C0
:100E000054E0394BDA680C231340082B23D0FFF74A
:100E100051FC801B354A9042F3D9032046E0324B07
:100E2000DA680C2313400C2B15D0FFF743FC801B12
:100E30002E4B9842F3D9032038E02B4BDA680C2371
:100E40001340042B07D0FFF735FC801B274B98423B
:100E5000F3D903202AE0234B1A6801231340A3424D
:100E600025D82B685B0706D51F4AD36820490B405D
:100E7000E9680B43D3602B681B0707D51A49CB6879
:100E80001C4A13402A69D2001343CB60FFF72AFCA7
:100E9000154BDA6812090F231340174AD35CD84068
:100EA000164B1860164B1868FFF7BCFB70BD0D4A57
:100EB000136801218B4323431360FFF7FBFB0600FC
:100EC000084B1A6801231340A342CAD0FFF7F2FB74
:100ED000801B064B9842F3D90320E7E70120E5E7A2
:100EE0000120E3E7002002400010024088130000C8
:100EF000FFF8FFFFFFC7FFFFD8130008080000201E
:100F00000400002070B5040082231B0102681A420D
:100F10005CD0764B9B6BDB0000D59FE0734A916BF6
:100F200080235B050B4393630125714B1B68DB0535
:100F300000D495E06D4B1A68C0239B031A4061688A
:100F40000B40934200D1A0E0C0239B020A001A404C
:100F50009A4200D1A1E0654B1A6DC0239B0210009C
:100F600018401A421FD01940814202D023689B06C4
:100F700008D4C0239B02A2681340834213D0236885
:100F80001B0510D5594B186D5A4A02401E6D802121
:100F9000090331431965196D574E314019651A65BA
:100FA000C30500D580E06368C02292021900114099
:100FB000914200D188E04D490B6DC02292026068D9
:100FC000024013430B65012D00D187E02368DB0746
:100FD00006D5464AD36C03218B43E1680B43D364A7
:100FE00023689B0706D5414AD36C0C218B432169AA
:100FF0000B43D36423685B0706D53C4AD36C3F4957
:101000000B4061690B43D36423681B0706D5374A3D
:10101000D36C3B490B40A1690B43D3642368DB05C8
:1010200006D5324AD36C33490B40E1690B43D36494
:1010300023685B0606D52D4AD36C32490B40616AA2
:101040000B43D36423681B064ED5284AD36C2E4924
:101050000B40216A0B43D364002046E0002564E77F
:10106000234A116880235B000B431360FFF722FBC8
:1010700006001F4B1B68DB0500D55BE7FFF71AFB7B
:10108000801B6428F5D903202FE0C0239B03A068B0
:101090000340934200D057E75DE7144B1B689B0366
:1010A00000D458E7012020E0FFF704FB06000F4BB7
:1010B0001B6D9B0500D576E7FFF7FCFA801B134BF1
:1010C0009842F4D9032010E008490A681048024009
:1010D000C0208003034013430B606CE70A008B6B56
:1010E0000C490B40936371E7002070BD0010024073
:1010F00000700040FFFFFCFFFFFFF7FFFFF3FFFF63
:10110000FFCFFFFFFFFFFFFBFFFFF3FF8813000090
:10111000FFFFCFFFFFFFFFEFF0B5002357E084682C
:101120005F000326BE40B4432600CC68BC40344375
:101130008460446894434A681609012232409A4008
:101140002243426053E0DC080834A40026580532EC
:101150001A4092000F279740BE430F6997403A000C
:101160003243225057E0052600E00026A640340016
:101170003C4302329200474E9451474A1468EA4376
:101180002600AE434F68FF0301D52C432600424C96
:1011900026606468260016404F68BF0301D52C43C3
:1011A00026003D4C6660A468260016404F68FF028A
:1011B00001D52C432600384CA660E46822404E68D6
:1011C000B60201D52A002243334CE26001330C6899
:1011D0002200DA405DD001229A40250015401442D9
:1011E000F4D003244E683440013C012C97D90322EB
:1011F0004C682240032A09D0C2685E000324B44030
:10120000A24314008A68B2402243C26003224C68A1
:101210002240022A97D004685E0003221700B740DC
:10122000BC434F683A40B24022430260C02292025F
:101230004C681442CAD0194C626B01263243626377
:101240009A08941CA400134EA75903261E40B4000C
:101250000F26A640B743A026F605B04285D0104E13
:10126000B0420ED00F4EB0420DD00F4EB0420CD057
:101270000E4EB0420BD00E4EB04200D173E70626A0
:1012800074E7012672E7022670E703266EE704265C
:101290006CE7F0BD00000140000401400010024076
:1012A0000004005000080050000C005000100050D6
:1012B000001C0050002A01D0816170478162FCE768
:1012C000426913000B401B0491431943816170472D
:1012D00070B5002811DB8308134EC0339B009D5965
:1012E00003242040C000FF2214008440A54389014C
:1012F0000A4082402A439A5170BD0F230340083BA5
:101300009B0806339B00094A944663445C680322A9
:101310001040C000FC3215008540AC4389010A40F2
:10132000824022435A60E7E700E100E000ED00E080
:10133000013880235B0498420FD2094A5060094863
:10134000036A1B021B0AC02109060B430362002328
:10135000936007331360002070470120FCE7C0460C
:1013600010E000E000ED00E0704700000D48854609
:101370000D480E490E4A002302E0D458C4500433ED
:10138000C4188C42F9D30B4A0B4C002301E01360C4
:101390000432A242FBD3FFF7E7FFFFF77FF8FFF726
:1013A0000FF9FEE700500020000000200C00002094
:1013B000041400080C0000202C000020FEE70000B0
:1013C000F8B5C046F8BC08BC9E467047F8B5C046A4
:0813D000F8BC08BC9E46704702
:1013D80000000000000000000102030406070809DD
:0C13E800030406080C1018203000000060
:0813F400BCEEFF7F01000000C8
:0413FC00E9000008FC
:04140000C10000081F
:0C140400010000000400000000002000B7
:040000050800136D6F
:00000001FF
