:020000040800F2
:1000000000500020A51900085D0600085F060008E2
:1000100000000000000000000000000000000000E0
:100020000000000000000000000000006106000861
:1000300000000000000000006306000865060008DC
:10004000F5190008F5190008F5190008F519000858
:10005000F5190008F5190008F5190008F519000848
:10006000F5190008F5190008F5190008F519000838
:10007000F5190008F5190008F5190008F519000828
:10008000F5190008F5190008F5190008000000002E
:10009000F5190008F5190008F5190008F519000808
:1000A000F5190008F5190008F5190008F5190008F8
:1000B000F5190008F5190008F5190008F5190008E8
:1000C00010B5064C2378002B07D1054B002B02D02E
:1000D000044800E000BF0123237010BD0C00002085
:1000E00000000000F8190008044B10B5002B03D0E5
:1000F0000349044800E000BF10BDC04600000000F6
:1001000010000020F8190008002243088B4274D325
:1001100003098B425FD3030A8B4244D3030B8B4208
:1001200028D3030C8B420DD3FF22090212BA030C11
:100130008B4202D31212090265D0030B8B4219D3F2
:1001400000E0090AC30B8B4201D3CB03C01A524112
:10015000830B8B4201D38B03C01A5241430B8B425A
:1001600001D34B03C01A5241030B8B4201D30B0343
:10017000C01A5241C30A8B4201D3CB02C01A52416A
:10018000830A8B4201D38B02C01A5241430A8B422D
:1001900001D34B02C01A5241030A8B4201D30B0216
:1001A000C01A5241CDD2C3098B4201D3CB01C01A30
:1001B000524183098B4201D38B01C01A524143093A
:1001C0008B4201D34B01C01A524103098B4201D328
:1001D0000B01C01A5241C3088B4201D3CB00C01A95
:1001E000524183088B4201D38B00C01A524143080D
:1001F0008B4201D34B00C01A5241411A00D2014632
:10020000524110467047FFE701B5002000F006F8A4
:1002100002BDC0460029F7D076E770477047C04658
:10022000002B11D1002A0FD1002900D1002802D0C3
:100230000021C943081C07B4024802A140180290DB
:1002400003BDC046D9FFFFFF03B4684601B502985D
:1002500000F02EF8019B9E4602B00CBC7047C046D1
:10026000F0B515042D0C0F0001002E00C646844683
:100270000004140C000C090C46434D4360436143D9
:100280004019340C241800B5A54203D9802040023F
:1002900080464144250C6D18614659437A43300429
:1002A00049192404000C2018891880BCB846F0BDF8
:1002B000F0B557464E464546DE46E0B504000D0013
:1002C0009246994683B08B4230D82DD0494650464D
:1002D00000F0BAF829000600200000F0B5F8331A43
:1002E0009846203B9B4633D45A4653469340424659
:1002F0001F00534693401E00AF423AD8AF4200D190
:1003000078E05B46A41BBD41002B00DA75E00022BB
:1003100000230092019301235A4693400193012345
:1003200042469340009328E08242CFD90022002326
:10033000009201930C9B002B01D01C605D60009823
:10034000019903B0F0BCBB46B246A946A046F0BD39
:10035000424620239B1A5246DA40414613004A4641
:100360008A40170042461F43534693401E00AF4247
:10037000C4D900220023009201934346002BD9D018
:10038000FB0772081A4346467B080EE0AB4201D1D8
:10039000A2420CD8A41A9D41012024196D410021CC
:1003A000013E24184D41002E06D0AB42EED9013E4D
:1003B00024196D41002EF8D1009801995B4600196F
:1003C0006941002B24DB2B005A464446D3402A00C7
:1003D000E2401C005B461500002B2ADB26009E40F5
:1003E000330026004746BE403200801A99410090F3
:1003F00001919FE7A342BCD883E742462023002116
:100400009B1A0022009101920122DA40019286E7B4
:10041000424620239B1A2A0046469A402300F34076
:10042000444613432A00E2401C005B461500002BA3
:10043000D4DA42462F002023260097409B1ADE4044
:100440003B003343CDE7C04610B5002903D100F08F
:1004500007F8203002E0081C00F002F810BDC0468A
:100460001C2101231B04984201D3000C10391B0AE4
:10047000984201D3000A08391B09984201D30009A8
:10048000043902A2105C40187047C04604030202FF
:1004900001010101000000000000000070B500260D
:1004A0000C4D0D4C641BA410A64209D1002601F08E
:1004B000A3FA0A4D0A4C641BA410A64205D170BDD4
:1004C000B300EB5898470136EEE7B300EB58984776
:1004D0000136F2E7841A0008841A0008841A00081A
:1004E000881A000803008218934200D170471970DF
:1004F0000133F9E770B588B01422002103A8FFF793
:10050000F1FF1B4BD96A04221143D962D96A0A4010
:100510000092009AD96A80221143D962D96A0A40AE
:100520000192019ADA6A01252A43DA62DB6A2B40DA
:100530000293029BA026F60500222021300001F044
:10054000DDF980239B01039384239B030493002400
:10055000059403A9074801F003F9202303930495A8
:100560000594069403A9300001F0FAF808B070BDB4
:10057000001002400008005072B6FEE710B50B48AC
:100580000B4B0360E1235B02436000238360C36085
:1005900003610C2242618361C3610362436200F024
:1005A0001BFB002800D110BDFFF7E6FF280000204C
:1005B0000044004000B59FB03822002110A8FFF78A
:1005C00091FF142200210BA8FFF78CFF28220021A5
:1005D00001A8FFF787FF1A490B681A4A1A408023BF
:1005E0001B0113430B60102310930F3B1793002341
:1005F0001893A022120219921A9310A800F0C8FBB7
:10060000002817D10F230B9300230C930D930E9307
:100610000F9300210BA800F087FE00280CD10223C5
:1006200001930023059301A800F090FF002805D155
:100630001FB000BDFFF7A0FFFFF79EFFFFF79CFF75
:1006400000700040FFE7FFFF10B500F023FBFFF74D
:10065000B1FFFFF74FFFFFF791FFFEE7FEE7FEE771
:100660007047704710B500F029FB10BD054B5A6B61
:1006700001210A435A63996B802252050A439A6307
:100680007047C0460010024010B586B00400142226
:10069000002101A8FFF726FF2268114B9A4201D0E2
:1006A00006B010BD0F4B996B802292020A439A63E9
:1006B000D96A01221143D962DB6A1A400092009B79
:1006C0000C2301930A3B0293002303930333049307
:1006D00001330593A02001A9C00501F041F8DFE72F
:1006E0000044004000100240D0B504000168836857
:1006F0000269134342691343C26913430A689B4862
:10070000024013430B602268536899490B40E1682B
:100710000B435360A1692268964B9A4201D0236A29
:1007200019439368944803400B4393602268934BAA
:100730009A420DD0924B9A422AD0924B9A425ED066
:10074000914B9A425DD08B4B9A4232D010230BE0F2
:100750008E4BD96C03230B40022B42D014D8002BB4
:1007600041D0012B41D1033382498A4253D0E06901
:1007700080221202904200D18AE0082B00D9EEE0DC
:100780009B00834AD3589F46032B30D10533EBE7B8
:100790007E4BD96C0C230B40082B2AD005D8002B9C
:1007A00029D0042BE0D01023DEE70C2B25D1043B0D
:1007B000DAE7764BDB6CC02109010B40802109018F
:1007C0008B4220D007D8002B1FD08021C9008B423C
:1007D0001DD10423C8E7C02109018B4219D1082388
:1007E000C2E70223C0E70123BEE71023BCE71023C2
:1007F000BAE70223B8E70023B6E71023B4E70023E3
:10080000B2E70023B0E70223AEE70023ACE71023F2
:10081000AAE71023A8E7042B35D00BD8002B2CD047
:10082000022B05D1594B1B68DB062FD4594805E034
:10083000012073E0082B1ED1802000026268530063
:100840009B18834200D97EE01303834200D27CE0F0
:10085000070E060250080021801979410023FFF796
:10086000DFFC4D4BC2184D4B9A4200D96FE0236814
:10087000D860002052E0012050E000F047FE002840
:10088000DCD100204AE000F02BFAF8E74448D5E735
:10089000082B5ED89B00434AD3589F4600F036FE93
:1008A000002858D0400063685B08C0186168FFF7F3
:1008B0002BFC83B20004000C010010393A4A91422B
:1008C0004BD80F2293431A004008072318401043C7
:1008D0002368D860002021E000F028FEE0E72B4BE1
:1008E0001B68DB0604D42B48DCE700F0F9F9D7E7F6
:1008F0002B48D7E700F00AFE002832D063685B0877
:1009000018186168FFF700FC0004000C0200103AA0
:10091000254B9A4227D82368D860002000236366BD
:10092000A366D0BD00F002FEE6E7184B1B68DB06AD
:1009300007D41848E2E700F0D3F9DDE78020000291
:10094000DCE71748DAE70120E8E70120E6E70120C5
:10095000E4E70120E2E70020E0E70120DEE70120F4
:10096000DCE70020DAE70120D8E7C046F369FFEFB3
:10097000FFCFFFFF00480040FFF4FFFF00380140B9
:1009800000440040004C0040005000400010024075
:10099000101A00080024F40000FDFFFFFFFC0F0008
:1009A00000093D00341A0008EFFF0000436ADB072E
:1009B00006D5026853682C490B40816A0B4353608B
:1009C000436A9B0706D50268536828490B40C16AF1
:1009D0000B435360436A5B0706D50268536824499A
:1009E0000B40016B0B435360436A1B0706D502683B
:1009F000536820490B40416B0B435360436ADB064D
:100A000006D5026893681C490B40816B0B439360C9
:100A1000436A9B0606D50268936818490B40C16B70
:100A20000B439360436A5B060BD502685368144915
:100A30000B40016C0B43536080235B03026C9A42B2
:100A40000AD0436A1B0606D5026853680D490B405D
:100A5000816C0B4353607047026853680A490B402E
:100A6000416C0B435360ECE7FFFFFDFFFFFFFEFF10
:100A7000FFFFFBFFFF7FFFFFFFEFFFFFFFDFFFFF3A
:100A8000FFFFEFFFFFFFF7FFFFFF9FFFF8B5CE4629
:100A9000474680B506000D0017009946089B98460A
:100AA0003368DC692C40641B63425C41BC4253D117
:100AB00043460133F4D000F00DF94B46C01A4045CF
:100AC0002CD84346002B29D033681A685207E7D543
:100AD000DA691205E4D5802212011A62EFF3108060
:100AE000012282F3108831680B681E4C23400B6092
:100AF00080F31088EFF3108082F3108831688B68E0
:100B000093438B6080F310882023B367F3677F32B1
:100B1000B35054330022F25403201EE0EFF3108050
:100B2000012282F3108831680B680E4C23400B6061
:100B300080F31088EFF3108082F3108831688B689F
:100B400093438B6080F310882023B367F36754339B
:100B50000022F254032000E00020C0BCB946B04699
:100B6000F8BDC0465FFEFFFF30B583B004008023B0
:100B70000022C25000F0AEF8050023681B681B0776
:100B80000DD423681B685B0716D42023A367E36793
:100B9000002323667422A354002003B030BD8021BB
:100BA0000C4B00930300002289032000FFF76EFF27
:100BB0000028E6D00320F0E78021064B00932B00AD
:100BC0000022C9032000FFF761FF0028DDD00320C9
:100BD000E3E7C046FFFFFF0110B5041E2ED0836F70
:100BE000002B21D02423A3672268136801218B43A3
:100BF00013602000FFF778FD012814D0636A002BF2
:100C000018D1226853680E490B40536022689368DC
:100C10002A218B4393602268136829390B431360A0
:100C20002000FFF7A1FF10BD74330022C254FFF76C
:100C30002BFDD7E72000FFF7B9FEE2E70120F2E73E
:100C4000FFB7FFFF10B504000F4B1978FA208000A2
:100C5000FFF75AFA01000D4B1868FFF755FA00F03C
:100C600083FE00280DD1032C01D901200AE00130B8
:100C700000222100404200F047FE054B1C6000208E
:100C800000E0012010BDC046000000200800002048
:100C90000400002010B5084A136840210B4313607C
:100CA0000020FFF7CFFF041E02D00124200010BD5A
:100CB000FFF7DCFCFAE7C04600200240034A116857
:100CC000034B1B785B1813607047C046AC000020D4
:100CD00000000020014B18687047C046AC0000209F
:100CE00010B5264BDA680C231340082B42D00C2B8E
:100CF00011D0042B09D0214B5A68520B0723134003
:100D0000013380200002984010BD1C4B1B68DB069D
:100D100032D51B48F8E7910C0F230B401949C85CEA
:100D2000920D03231A40541C144BDB68DB0309D5D6
:100D3000154A00230021FFF793FA22000023FFF752
:100D40006FFAE1E70D4B1B68DB0609D50C4A00235F
:100D50000021FFF785FA22000023FFF761FAD3E7AD
:100D60000A4A00230021FFF77BFA22000023FFF745
:100D700057FAC9E70448C7E70448C5E7001002402E
:100D800000093D00701A000800127A000024F400E7
:100D9000F0B583B0041E00D19FE2C54BDA680C2584
:100DA0001540DE6880235B021E400368DB0736D5F2
:100DB000082D2CD00C2D28D063688022520293423B
:100DC00055D0A022D202934258D0B94B1A68B949E3
:100DD0000A401A601A68802149020A400192019A69
:100DE0001A68B5490A401A606368002B52D0FFF7B1
:100DF00071FF0700AE4B1B689B0310D4FFF76AFF1F
:100E0000C01B6428F6D9032068E2002ED4D0A84B7A
:100E10001B689B0303D56368002B00D160E2236845
:100E20009B076DD5E3689A0605D5A1480268202185
:100E30000A4302608B43042D3CD00C2D38D0002B8C
:100E400000D1B0E09A490A680920824313430B603D
:100E5000FFF740FF0600964B1B685B0700D599E043
:100E6000FFF738FF801B0228F5D9032036E2904AAD
:100E7000116880235B020B431360B5E78C4B196844
:100E80008022D2020A431A601968802252020A4361
:100E90001A60A9E7FFF71EFF0700854B1B689B033D
:100EA000BDD5FFF717FFC01B6428F6D9032015E254
:100EB000002EC4D17E4A1268520702D5002B00D101
:100EC00010E27B4E72687D490A40216909020A439B
:100ED0007260326809218A4313433360FFF700FFD1
:100EE000F26812090F231340754AD35CD840754B42
:100EF0001860754B1868FFF7A5FE002800D0EDE1DB
:100F00002368DB062DD5002D60D1694B1B689B053E
:100F100003D5E369002B00D1E6E1654A53686B49CC
:100F20000B40616A0B43536053681B021B0A216A22
:100F300009060B435360636A590B013180231B027E
:100F40008B40D16809090F220A405D498A5CD34071
:100F50005C4A13605C4B1868FFF774FE002800D0F1
:100F6000BCE123681B077DD56369002B67D0504A1D
:100F7000136D01210B431365FFF7ACFE06004C4BCC
:100F80001B6D9B076ED4FFF7A5FE801B0228F6D9C8
:100F90000320A3E146494B68484A134022691202E4
:100FA00013434B60ACE7424A136801218B43136043
:100FB000FFF790FE06003E4B1B685B07A0D5FFF7CE
:100FC00089FE801B0228F6D9032087E1E369002B04
:100FD00022D0374A116880235B000B431360FFF770
:100FE00079FE0600324B1B689B0506D4FFF772FEA4
:100FF000801B0228F6D9032070E12D4A536833493B
:101000000B40616A0B43536053681B021B0A216A41
:1010100009060B435360A4E7254A13682C490B408B
:101020001360FFF757FE0600214B1B689B0598D500
:10103000FFF750FE801B0228F6D903204EE11C4A20
:10104000136D01218B431365FFF744FE0600184B17
:101050001B6D9B0706D5FFF73DFE801B0228F6D9C6
:1010600003203BE123685B0700D48EE0104B9B6BB1
:10107000DB001BD40E4A916B80235B050B4393630B
:101080000126144B1B68DB0528D5A368802252007B
:10109000934237D0002B4DD1054B1A6D0C490A40B5
:1010A0001A651A6D0C490A401A6531E00026E8E716
:1010B00000100240FFFFFEFFFFFFFBFFFFE0FFFF0E
:1010C000581A00080800002004000020FF1FFFFF3E
:1010D000FFFEFFFF00700040FFFBFFFF884A116822
:1010E00080235B000B431360FFF7F4FD0700844B84
:1010F0001B68DB05C9D4FFF7EDFDC01B6428F6D9DA
:101100000320EBE07F4A116D80235B000B431365E6
:10111000A368002B28D0FFF7DDFD0700794B1B6D7E
:101120009B0530D4FFF7D6FDC01B774B9842F5D90D
:101130000320D3E0A022D200934209D0714B1A6D54
:1011400072490A401A651A6D71490A401A65DFE74B
:101150006C4B196D013AFF3A0A431A65196D8022EA
:1011600052000A431A65D3E7FFF7B4FD0700654B49
:101170001B6D9B0507D5FFF7ADFDC01B624B984269
:10118000F5D90320AAE0012E21D023689B063CD587
:10119000A369002B21D05B4B996801200143996022
:1011A0005A6B02435A635B4A116A80239B010B43CB
:1011B0001362FFF78FFD0600524B9B689B0724D4F8
:1011C000FFF788FD801B0228F6D9032086E04D4AF0
:1011D000936B51490B409363D7E74A4A93680121C7
:1011E0008B4393604B4A136A4C490B401362FFF7E1
:1011F00071FD0600434B9B689B0706D5FFF76AFD10
:10120000801B0228F6D9032068E0A36A002B00D1D6
:101210006CE00C2D49D0022B12D03A4A1368404999
:101220000B401360FFF756FD0400364B1B689B0113
:1012300039D5FFF74FFD001B0228F6D903204DE0FA
:10124000304A136836490B401360FFF743FD050031
:101250002C4B1B689B0106D5FFF73CFD401B022869
:10126000F6D903203AE02749CB682E4A1340E26AB8
:10127000206B0243606B02431343CB600A688023F8
:101280005B0413430B60FFF725FD04001D4B1B6837
:101290009B0106D4FFF71EFD001B0228F6D9032090
:1012A0001CE000201AE0002018E0012B20D0154B94
:1012B000DA6880235B021340E16A8B421AD1F02383
:1012C0009B031340216B8B4216D1C0231B041A4091
:1012D000636B9A4212D1002000E0012003B0F0BD00
:1012E0000120FBE70120F9E70120F7E70020F5E7FF
:1012F0000120F3E70120F1E70120EFE70120EDE70E
:10130000007000400010024088130000FFFEFFFF45
:10131000FFFBFFFF00000140FFFFFFEFFFDFFFFFCC
:10132000FFFFFFFEFFFF02FF70B505000C00002865
:1013300000D1D1E06A4B1A68012313408B4219D3C4
:101340002B689B0706D5674AD368F0218B43A968B1
:101350000B43D3602B68DB077BD56B68022B20D057
:10136000032B40D0012B44D05E4A126892051DD455
:10137000012099E05A4A136801218B4323431360EB
:10138000FFF7A8FC0600564B1A6801231340A3423E
:10139000D6D0FFF79FFC801B534A9042F3D903201D
:1013A00082E0504A1268920300D497E04D49CA681F
:1013B000032082431343CB60FFF78CFC06006B686D
:1013C000022B1CD0032B28D0012B34D0454BDB68DB
:1013D0000C221A423DD0FFF77DFC801B424B984205
:1013E000F4D9032060E03F4A12689201DED4012064
:1013F0005AE03C4A12685207D8D4012054E0394BD5
:10140000DA680C231340082B23D0FFF763FC801B02
:10141000354A9042F3D9032046E0324BDA680C2378
:1014200013400C2B15D0FFF755FC801B2E4B984218
:10143000F3D9032038E02B4BDA680C231340042B3C
:1014400007D0FFF747FC801B274B9842F3D90320B6
:101450002AE0234B1A6801231340A34225D82B68A6
:101460005B0706D51F4AD36820490B40E9680B4348
:10147000D3602B681B0707D51A49CB681C4A134059
:101480002A69D2001343CB60FFF72AFC154BDA68B8
:1014900012090F231340174AD35CD840164B18602B
:1014A000164B1868FFF7CEFB70BD0D4A136801217B
:1014B0008B4323431360FFF70DFC0600084B1A68AB
:1014C00001231340A342CAD0FFF704FC801B064B44
:1014D0009842F3D90320E7E70120E5E70120E3E79D
:1014E000002002400010024088130000FFF8FFFFB8
:1014F000FFC7FFFF581A0008080000200400002062
:10150000014B18687047C0460800002010B5FFF76F
:10151000F7FF044BDA68120A07231340024AD35C30
:10152000D84010BD00100240681A000810B5FFF73F
:10153000E7FF044BDA68D20A07231340024AD35C60
:10154000D84010BD00100240681A000870B50400B1
:1015500082231B0102681A425CD0764B9B6BDB0036
:1015600000D59FE0734A916B80235B050B43936327
:101570000125714B1B68DB0500D495E06D4B1A68A3
:10158000C0239B031A4061680B40934200D1A0E046
:10159000C0239B020A001A409A4200D1A1E0654B89
:1015A0001A6DC0239B02100018401A421FD0194028
:1015B000814202D023689B0608D4C0239B02A26804
:1015C0001340834213D023681B0510D5594B186D67
:1015D0005A4A02401E6D8021090331431965196D75
:1015E000574E314019651A65C30500D580E0636820
:1015F000C022920219001140914200D188E04D4969
:101600000B6DC02292026068024013430B65012DEE
:1016100000D187E02368DB0706D5464AD36C032157
:101620008B43E1680B43D36423689B0706D5414A8B
:10163000D36C0C218B4321690B43D36423685B0774
:1016400006D53C4AD36C3F490B4061690B43D364D8
:1016500023681B0706D5374AD36C3B490B40A16969
:101660000B43D3642368DB0506D5324AD36C334978
:101670000B40E1690B43D36423685B0606D52D4A12
:10168000D36C32490B40616A0B43D36423681B0659
:101690004ED5284AD36C2E490B40216A0B43D364A4
:1016A000002046E0002564E7234A116880235B00A0
:1016B0000B431360FFF70EFB06001F4B1B68DB0597
:1016C00000D55BE7FFF706FB801B6428F5D90320F4
:1016D0002FE0C0239B03A0680340934200D057E74C
:1016E0005DE7144B1B689B0300D458E7012020E002
:1016F000FFF7F0FA06000F4B1B6D9B0500D576E750
:10170000FFF7E8FA801B134B9842F4D9032010E04E
:1017100008490A6810480240C02080030340134370
:101720000B606CE70A008B6B0C490B40936371E70D
:10173000002070BD0010024000700040FFFFFCFF61
:10174000FFFFF7FFFFF3FFFFFFCFFFFFFFFFFFFBF1
:10175000FFFFF3FF88130000FFFFCFFFFFFFFFEF46
:10176000F0B5002357E084685F000326BE40B44311
:101770002600CC68BC4034438460446894434A6883
:101780001609012232409A402243426053E0DC08AD
:101790000834A400265805321A4092000F279740BB
:1017A000BE430F6997403A003243225057E0052666
:1017B00000E00026A64034003C4302329200474E2F
:1017C0009451474A1468EA432600AE434F68FF032A
:1017D00001D52C432600424C266064682600164042
:1017E0004F68BF0301D52C4326003D4C6660A468BA
:1017F000260016404F68FF0201D52C432600384CC6
:10180000A660E46822404E68B60201D52A00224351
:10181000334CE26001330C682200DA405DD00122D3
:101820009A40250015401442F4D003244E683440F9
:10183000013C012C97D903224C682240032A09D08D
:10184000C2685E000324B440A24314008A68B24018
:101850002243C26003224C682240022A97D00468C7
:101860005E0003221700B740BC434F683A40B240C5
:1018700022430260C02292024C681442CAD0194C22
:10188000626B0126324362639A08941CA400134ED3
:10189000A75903261E40B4000F26A640B743A02632
:1018A000F605B04285D0104EB0420ED00F4EB04279
:1018B0000DD00F4EB0420CD00E4EB0420BD00E4E9B
:1018C000B04200D173E7062674E7012672E70226CC
:1018D00070E703266EE704266CE7F0BD00000140C8
:1018E00000040140001002400004005000080050B5
:1018F000000C005000100050001C0050002A01D0C5
:10190000816170478162FCE770B5002811DB8308B4
:10191000134EC0339B009D5903242040C000FF227A
:1019200014008440A54389010A4082402A439A5109
:1019300070BD0F230340083B9B0806339B00094AF8
:10194000944663445C6803221040C000FC321500DA
:101950008540AC4389010A40824022435A60E7E750
:1019600000E100E000ED00E0013880235B049842D4
:101970000FD2094A50600948036A1B021B0AC021A2
:1019800009060B43036200239360073313600020B2
:1019900070470120FCE7C04610E000E000ED00E0E9
:1019A000704700000D4885460D480E490E4A002339
:1019B00002E0D458C4500433C4188C42F9D30B4A03
:1019C0000B4C002301E013600432A242FBD3FFF76B
:1019D000E7FFFEF763FDFEF737FEFEE7005000204D
:1019E000000000200C0000208C1A00080C000020D1
:1019F000B0000020FEE70000F8B5C046F8BC08BC07
:101A00009E467047F8B5C046F8BC08BC9E46704775
:101A1000F4080008240900082A0900085E090008E3
:101A2000360900085E0900085E0900085E09000822
:101A30003C0900089C080008D8080008DE080008D7
:101A400052090008EA080008520900085209000873
:101A500052090008A408000800000000000000006F
:101A60000102030406070809000000000102030444
:0C1A7000030406080C10182030000000D1
:081A7C0034E8FF7F01000000C7
:041A8400E90000086D
:041A8800C100000891
:0C1A8C0001000000040000000000200029
:04000005080019A531
:00000001FF
