:020000040800F2
:10000000005000202D220008B7140008B914000881
:1000100000000000000000000000000000000000E0
:10002000000000000000000000000000BB140008F9
:100030000000000000000000BD140008BF1400080C
:100040007D2200087D2200087D2200087D22000814
:100050007D2200087D2200087D2200087D22000804
:100060007D2200087D2200087D2200087D220008F4
:100070007D2200087D2200087D2200087D220008E4
:100080007D2200087D2200087D220008000000007B
:100090007D2200087D2200087D2200087D220008C4
:1000A0007D2200087D2200087D2200087D220008B4
:1000B0007D2200087D2200087D2200087D220008A4
:1000C00010B5064C2378002B07D1054B002B02D02E
:1000D000044800E000BF0123237010BD7000002021
:1000E00000000000B0230008044B10B5002B03D023
:1000F0000349044800E000BF10BDC04600000000F6
:1001000074000020B0230008002243088B4274D3FF
:1001100003098B425FD3030A8B4244D3030B8B4208
:1001200028D3030C8B420DD3FF22090212BA030C11
:100130008B4202D31212090265D0030B8B4219D3F2
:1001400000E0090AC30B8B4201D3CB03C01A524112
:10015000830B8B4201D38B03C01A5241430B8B425A
:1001600001D34B03C01A5241030B8B4201D30B0343
:10017000C01A5241C30A8B4201D3CB02C01A52416A
:10018000830A8B4201D38B02C01A5241430A8B422D
:1001900001D34B02C01A5241030A8B4201D30B0216
:1001A000C01A5241CDD2C3098B4201D3CB01C01A30
:1001B000524183098B4201D38B01C01A524143093A
:1001C0008B4201D34B01C01A524103098B4201D328
:1001D0000B01C01A5241C3088B4201D3CB00C01A95
:1001E000524183088B4201D38B00C01A524143080D
:1001F0008B4201D34B00C01A5241411A00D2014632
:10020000524110467047FFE701B5002000F006F8A4
:1002100002BDC0460029F7D076E770477047C04658
:10022000002B11D1002A0FD1002900D1002802D0C3
:100230000021C943081C07B4024802A140180290DB
:1002400003BDC046D9FFFFFF03B4684601B502985D
:1002500000F02EF8019B9E4602B00CBC7047C046D1
:10026000F0B515042D0C0F0001002E00C646844683
:100270000004140C000C090C46434D4360436143D9
:100280004019340C241800B5A54203D9802040023F
:1002900080464144250C6D18614659437A43300429
:1002A00049192404000C2018891880BCB846F0BDF8
:1002B000F0B557464E464546DE46E0B504000D0013
:1002C0009246994683B08B4230D82DD0494650464D
:1002D00001F046F829000600200001F041F8331A29
:1002E0009846203B9B4633D45A4653469340424659
:1002F0001F00534693401E00AF423AD8AF4200D190
:1003000078E05B46A41BBD41002B00DA75E00022BB
:1003100000230092019301235A4693400193012345
:1003200042469340009328E08242CFD90022002326
:10033000009201930C9B002B01D01C605D60009823
:10034000019903B0F0BCBB46B246A946A046F0BD39
:10035000424620239B1A5246DA40414613004A4641
:100360008A40170042461F43534693401E00AF4247
:10037000C4D900220023009201934346002BD9D018
:10038000FB0772081A4346467B080EE0AB4201D1D8
:10039000A2420CD8A41A9D41012024196D410021CC
:1003A000013E24184D41002E06D0AB42EED9013E4D
:1003B00024196D41002EF8D1009801995B4600196F
:1003C0006941002B24DB2B005A464446D3402A00C7
:1003D000E2401C005B461500002B2ADB26009E40F5
:1003E000330026004746BE403200801A99410090F3
:1003F00001919FE7A342BCD883E742462023002116
:100400009B1A0022009101920122DA40019286E7B4
:10041000424620239B1A2A0046469A402300F34076
:10042000444613432A00E2401C005B461500002BA3
:10043000D4DA42462F002023260097409B1ADE4044
:100440003B003343CDE7C04603685A0004D5802201
:1004500012061343C01870475B005B08FAE7C046FA
:10046000F8B557464546DE464E469046E0B507008D
:10047000002924D04B1E9A46994600239B465B4692
:100480004B44DC0FE4186410E5007E193000FFF7E0
:10049000DBFFA2450CD040450CD8280008303818A6
:1004A000FFF7D2FF013840450AD2631C9B46E6E7BE
:1004B000404505D9A34502D0631E9946DFE70026D3
:1004C0003000F0BCBB46B246A946A046F8BDC046C7
:1004D0000300012805D0022807D00020002B02D0FD
:1004E00070470348FCE70348FAE70348F8E7C046CB
:1004F000F90B0008ED0B0008050C000830B5234B84
:10050000050083B08C1E002B26D0200001A900E03E
:1005100000BF00281CD001992200FFF7A1FF041E94
:1005200016D0FFF791FF6368A864012B2AD0201D25
:10053000002B23DBFFF788FF0023E8642B650368AB
:10054000002B0FDBFFF780FF2861002003B030BDD8
:10055000002309202B61F9E70D480E49091AC9103B
:100560000191D9E71801000FFFF7B2FF2861431E80
:1005700098410823404298430930E7E70123E864A3
:100580002B65DCE7002305202B61DFE7000000007E
:1005900014240008FC240008036810B50400DA07DE
:1005A00005D49B070AD5483000F08AFC23685A0717
:1005B0000AD51A070FD5DB0615D510BD483000F057
:1005C0007BFC23685A07F4D42000D03000F07CFC78
:1005D00023681A07EFD420005130FF3000F078FC78
:1005E0002368DB06E9D42000D130FF3000F074FC32
:1005F000E3E7C04603000068002800D0C018704739
:10060000092070477047C04670B504000D002000F7
:10061000296CFFF773FF002811D12B6C2A0063614E
:1006200021000120236998470828F0D0072806D127
:100630000020296CFFF7E6FF281D00F027FC01F0E1
:100640004BFEC046F0B5CE46474680B5C368304C39
:100650009846A5448369040016000431402205A889
:10066000994601F040FE0023049325E0F022149BFC
:100670005200636104A97CA8039301F034FE2100B9
:10068000280023697CAA98478A9B05000393159349
:100690004B46019304AB009322002300310001205C
:1006A000C047002822D1F0227CA9520004A801F002
:1006B0001AFE0026082D22D1149B20001900039356
:1006C000FFF71CFF09360700F5B20028CED0129BB9
:1006D0001021039315934B46019304AB0093220022
:1006E000230001202943C047002800D009273800F3
:1006F000F5239B009D44C0BCB946B046F0BD072D14
:10070000F4D130001499FFF77DFF05A800F0BEFB7F
:100710002CFCFFFF406C704770B5CB6BFAB00B64DC
:1007200005000E004022043103A801F0DCFD012386
:100730005B42029306E029002B6902AA9847040055
:1007400008280AD1129B280019000193FFF7D6FE52
:100750000028F0D009207AB070BD02A8FFF71CFF76
:10076000062CF7D131002800FFF74EFF10B582614B
:10077000DA6BC1601A6419000022FFF763FF10BD35
:10078000436970B50B64C36804000D00002B13D1DE
:100790000A002369010002209847072805D008288D
:1007A0000FD129002000FFF72FFF0020296CFFF751
:1007B00029FF281D00F06AFB0122FFF743FF01F02B
:1007C0008BFD01F089FDC046C36810B5002B05D034
:1007D000CB6B00220B64FFF735FF10BDFFF79CFFCA
:1007E000FBE7C0467047C0468368010010B5002B88
:1007F00001D00120984710BD012915D00AD8002B3F
:1008000010D10F2A0ED8920082185268009B002047
:100810001A6006E001200339C9B288428041404293
:10082000013070470220FCE70120FAE700B585B0EF
:1008300003AB0A00009300210023FFF7DDFF0398BC
:1008400005B000BD012915D00AD8002B10D10F2A00
:100850000ED8009B92001B6882185360002006E0AF
:1008600001200339C9B288428041404201307047BB
:100870000220FCE70120FAE700B585B003AB039244
:1008800000930A0000230021FFF7DCFF05B000BD44
:1008900070B51A4CD36BA544136405000C0019A85D
:1008A000111D402201F01FFD01235B42189314E04B
:1008B0000C2118A802AAFFF7DFFF210018A8A847FB
:1008C000002812D1069B18AA02A908300193984764
:1008D000060005280AD0092807D0289B02A819007D
:1008E0000193FFF70BFE0028E2D0092618A8FFF7B6
:1008F00053FE300090239B009D4470BDC0FDFFFF60
:10090000F0B557469246032245464E46DE46994686
:100910001300E0B58846CD6C494689B0034000938A
:1009200008CD0695002900D180E01A0C1B04059320
:10093000022304A90B73FD3313409B004A73ED1887
:10094000009B022B01D143469D6B43461B6DDB0789
:100950000FD5504605A900F065FB002801D10820FD
:1009600000E0092009B0F0BCBB46B246A946A0464B
:10097000F0BD2F68002FECD0082303400293002322
:100980000193013354469B464646BA464B46022BDA
:1009900049D02B886F889A4604355B4638009843C7
:1009A000B36C0F21984680442000FFF73FFF0023DF
:1009B000804506D853465A469343434498429B4148
:1009C0005B4202227F001740594652460A401743B5
:1009D000012F30D0022F4CD0002FC2D1009A002A14
:1009E00002D0002B00D09BE004352B689A46002BE8
:1009F000CCD1200005A9A24600F014FB0028B0D1FC
:100A0000019B002BABD00F215046FFF70FFF0E21AB
:100A100002005046FFF730FF50460F21724AFFF7A1
:100A20002BFF07209EE76F680835B6E71B0205938A
:100A300004AB9A8184E7009A002A49D1002B16D092
:100A40002B68DF0F6B689A1C00D18AE7320058329E
:100A50000492013300D1B6E0281DFFF7CBFD3A0028
:100A6000010004AB300000E000BF00286CD1083565
:100A7000BBE72A68009957007F0800290DD1002B99
:100A800004D0029B002B72D0002F3CD0002A00DA49
:100A900004350137BF00ED19A7E7336A0D212000A7
:100AA0009846FFF7C3FE804501D02A68EEE7B36A97
:100AB0009D42FAD10023F362043333632B1DB762E6
:100AC00073632B68002B00DA87E001230193E0E7D2
:100AD0000D212000376AFFF7A9FE8742C7D1B36A0C
:100AE0009D42C4D1B046A2462800FFF7ADFC0F21BD
:100AF00002005046FFF7C0FE504642460021FFF775
:100B0000BBFE07202EE7B046A2460D215046FFF758
:100B10008DFE4346049A18625A6206209D6221E7C0
:100B20002800FFF791FC0435A246B56304003000AD
:100B300000E000BF002800D113E7504622000F213B
:100B4000FFF79AFE07200DE7A2460D21040050464C
:100B5000FFF76CFEB04633003062022C39D1049AA4
:100B60002C33F2627362434606209D62FAE62B1D27
:100B70009A460023984658339C4621004A46B4447E
:100B80005446A9468A463D0003924746E0460EE099
:100B9000434620000493FFF72DFD0022010004AB23
:100BA000300000E000BF01370434002804D1AF4218
:100BB000EED14D46B046A8E72F004D46039B544664
:100BC00099462A6862E70D212000FFF72FFEB04604
:100BD00030624346049A5A62C5E7781C8000B046EA
:100BE000A246281881E7C0460000000010B5002387
:100BF000FFF786FE10BDC04610B50123FFF780FE4B
:100C000010BDC04610B50223FFF77AFE10BDC046E6
:100C1000F0B5CE46474680B5050014001E00C3B0AF
:100C2000032970D04DD8002900D174E001296CD17E
:100C3000130C14049846240C012E00D1A8E0052EB4
:100C400063D11B19202B60D842460F2A00D8C0E080
:100C5000A146002C00D0D1E0AA6B20AF002C2ED0F2
:100C6000002399464346DB00FF180023E400D158D7
:100C7000F95004339C42FAD14B461219002B10D084
:100C80006F464046102800D210204B46D900002362
:100C90001038C0003818D458C45004339942FAD1DF
:100CA0005218012E00D1CFE04346AA630F2B00D883
:100CB000CCE04B46002B02D0684600F005F900203E
:100CC00024E0042921D1002B1FD1102A1DD8102285
:100CD00003681A4200D0A9E020AF380000F0FEF807
:100CE00000230120AA6B010099400C4202D040CAA7
:100CF00099007E500133042BF5D13800AA6300F02F
:100D0000EBF8002002E0032B1FD0022043B0C0BC50
:100D1000B946B046F0BD002BF7D101218846291D08
:100D200000238C461004AA6B000C414699400842EF
:100D300003D0664680CA990077500133102BF4D156
:100D40000020A304E2D4AA63E0E71404160C240CE8
:100D50003319102BD9D8082203681A426DD120AF5D
:100D6000380000F0B7F8F600AB6B002C0AD0F61A8A
:100D7000E400321F1C19BA1819000968043399508D
:100D8000A342F9D13800AB6300F0A2F80020BDE720
:100D90001B19102BB9D843460F2BB6D82B681E420F
:100DA00006D00322280093432B60483000F086F8D9
:100DB00020AF380000F082F80023AA6B9946002C7F
:100DC00000D04FE704323800AA6300F075F8002025
:100DD0009CE7102B45D9102252429146994401229A
:100DE0002B681A4207D093430222280013432B603A
:100DF000483000F067F84B46002B35D004222B68B2
:100E00001A4227D143460F2B03D820AF380000F0F9
:100E100059F86F46380000F059F810244346AA6B81
:100E2000E41A002C00DC2CE720AF1BE7934303609F
:100E3000D130FF3000F052F84EE793430360513059
:100E4000FF3000F047F88AE720AFBBE720A800F0AA
:100E500037F82EE7280093432B60D03000F036F8A7
:100E6000D0E700239946BAE743460F2B00D9F3E6B3
:100E700020AF380000F026F8AA6B002C00D0EFE677
:100E8000380000F01DF8002040E7C046011C343156
:100E900038C9043B9C461D60A646011C20313CC954
:100EA00090469946A246AB46011C0831FCC94168F0
:100EB0000068E54600BDC0467047C0467047C04662
:100EC0007047C0467047C0467047C0467047C0462E
:100ED0007047C0467047C0467047C0467047C0461E
:100EE00001B401A801B585B0FFB408A841464A463F
:100EF00053465C4665463EC001A83EC80F98009028
:100F000000230CB401A9FFF707FC109B12B018478F
:100F100001B401A801B585B0FFB408A841464A460E
:100F200053465C4665463EC001A83EC80F980090F7
:100F300000230CB401A9FFF723FC109B12B0184743
:100F400001B401A801B585B0FFB408A841464A46DE
:100F500053465C4665463EC001A83EC80F980090C7
:100F600000230CB401A9FFF72FFC109B12B0184707
:100F700001B401A801B585B0FFB408A841464A46AE
:100F800053465C4665463EC001A83EC80F98009097
:100F900000230CB401ABFFF7E9FB109B12B018471C
:100FA00001B401A801B585B0FFB408A841464A467E
:100FB00053465C4665463EC001A83EC80F98009067
:100FC00000230CB401AAFFF763FC109B12B0184772
:100FD000027A0300002A0BD1427A002A0FD0013A8C
:100FE00042724268111D416003211268017202E0E1
:100FF000013A02720268100E12021A607047B020A5
:10100000FCE7C04600B585B003AB00930C2200237B
:101010000021FFF7F1FB039805B000BD10B5FFF705
:10102000F1FF10BDF0B54E4645465746DE4600235B
:10103000E0B587B003930F339846083B9946802369
:101040001B0305000E009A463000FFF7C1FF0400A5
:10105000B02800D1C1E0030629D5030042469343DE
:10106000DBB2802B53D0902B3DD0A02B6BD0B02B7C
:1010700000D17EE0C02B00D195E003004A469343A7
:10108000DBB2D02B0AD15346024001321A4305236A
:1010900001212800FFF7BCFD0028D5D0092420003D
:1010A00007B0F0BCBB46B246A946A046F0BDFF2340
:1010B000820013401F1D05AB9B4600930D220023A9
:1010C00000212800FFF798FB630639D4059B9C4656
:1010D00067445B460597009300230D2200212800FA
:1010E000FFF7B0FBB0E7833B03400D2BD6D005AF35
:1010F00002400023002128000097FFF77DFB00231A
:101100000D22002128000097FFF79CFB9CE70402BA
:101110003000FFF75DFF802720433F02B842BDD07B
:1011200004010005020C002300212800FFF770FDD8
:101130000028B3D13C4200D186E70123039383E723
:10114000059BDF1BC5E7FF234A461B0119008243AD
:1011500011410A001A40030702D58023DB011A431C
:10116000002300212800FFF753FD002800D16BE782
:1011700094E7B12845D0B22800D19FE0B32855D0DC
:10118000FC230340B42B00D188E74A465346024073
:1011900001321A43012101232800FFF739FD0028FD
:1011A00000D151E77AE7C6284BD0C7285DD00300AD
:1011B0004A469343DBB2C02B6CD0C82871D0C928F3
:1011C00000D06BE73000FFF703FFF02302031B039F
:1011D000134042460240013258E7039B0024002B93
:1011E00000D05CE705AE0E22002128000096FFF734
:1011F00003FB00230F22002128000096FFF722FBAB
:101200004DE73000FFF7E4FE021E00D146E7030081
:1012100041468B43DBB2002B00D03FE70021280082
:10122000FFF7F6FC002800D10EE737E73000FFF7A4
:10123000CFFEF02302031B0313404246024001325B
:10124000A7E73000FFF7C4FEF02302031B0313409F
:101250004246024001321A43032303212800FFF7CC
:10126000D7FC002800D1EFE618E73000FFF7B0FE0A
:10127000021E00D112E7030041468B43DBB2002B74
:1012800000D00BE704212800FFF7C2FC002800D1A2
:10129000DAE603E74346A0221C400134120322434E
:1012A000DAE73000FFF794FE434602009A43D2B2D9
:1012B00010321840120301300243E8E605AB0093F8
:1012C0009B460D22002300212800FFF795FA3000ED
:1012D000FFF77EFE03061AD57F27B03C059B3840FA
:1012E000A0409C466044059030000734FFF770FE34
:1012F0000306F3D481217F2389008C460340A34059
:10130000059A62449B1805935B460093E4E6022429
:10131000F0E7C046030000B5DB6C85B05A680800F2
:10132000120201921A0008326946029203220A73DD
:10133000DB794B7301A9FFF775FE05B000BDC04610
:1013400010B5FFF76BFE806C10BDC04610B5FFF7FF
:1013500065FEC36CD87902308000181810BDC046F5
:1013600010B5002903D100F007F8203002E0081C76
:1013700000F002F810BDC0461C2101231B04984256
:1013800001D3000C10391B0A984201D3000A083916
:101390001B09984201D30009043902A2105C4018CD
:1013A0007047C04604030202010101010000000071
:1013B0000000000072B6FEE700B59FB038220021A1
:1013C00010A800F081FF142200210BA800F07CFF80
:1013D0002822002101A800F077FF1A490B681A4A59
:1013E0001A4080231B0113430B60102310930F3B03
:1013F000179300231893A022120219921A9310A88F
:1014000000F028F9002817D10F230B9300230C9329
:101410000D930E930F9300210BA800F0E7FB00281B
:101420000CD1022301930023059301A800F0CAFC0C
:10143000002805D11FB000BDFFF7BCFFFFF7BAFFC2
:10144000FFF7B8FF00700040FFE7FFFF00B587B06F
:101450000A4AD16A01231943D162D26A1A40009222
:10146000009A202201920293002303930493A02068
:1014700001A9C00500F0B0FD07B000BD001002409A
:1014800070B500F057F8FFF797FFFFF7DFFFA025D3
:10149000ED0501222021280000F06CFEFA246400F2
:1014A000200000F06DF82021280000F069FE2000E7
:1014B00000F066F8EBE7FEE7FEE77047704710B50F
:1014C00000F04CF810BD0000054B5A6B01210A4397
:1014D0005A63996B802252050A439A637047C0464B
:1014E0000010024010B504000F4B1978FA2080005C
:1014F000FEF70AFE01000D4B1868FEF705FE00F02E
:1015000077FE00280DD1032C01D901200AE001301B
:1015100000222100404200F03BFE054B1C600020F1
:1015200000E0012010BDC04600000020080000209F
:101530000400002010B5084A136840210B431360D3
:101540000020FFF7CFFF041E02D00124200010BDB1
:10155000FFF7BAFFFAE7C04600200240034A1168CD
:10156000034B1B785B1813607047C0468C0000204B
:1015700000000020014B18687047C0468C00002016
:1015800070B50400FFF7F6FF0500631C02D0044BA2
:101590001B78E418FFF7EEFF401BA042FAD370BDA2
:1015A0000000002010B5264BDA680C231340082BEE
:1015B00042D00C2B11D0042B09D0214B5A68520B6E
:1015C00007231340013380200002984010BD1C4BBC
:1015D0001B68DB0632D51B48F8E7910C0F230B4044
:1015E0001949C85C920D03231A40541C144BDB6844
:1015F000DB0309D5154A00230021FEF731FE220046
:101600000023FEF70DFEE1E70D4B1B68DB0609D555
:101610000C4A00230021FEF723FE22000023FEF7E0
:10162000FFFDD3E70A4A00230021FEF719FE22003E
:101630000023FEF7F5FDC9E70448C7E70448C5E7FE
:101640000010024000093D00D823000800127A0073
:101650000024F400F0B583B0041E00D19FE2C54B16
:10166000DA680C251540DE6880235B021E400368A3
:10167000DB0736D5082D2CD00C2D28D063688022AE
:101680005202934255D0A022D202934258D0B94B75
:101690001A68B9490A401A601A68802149020A404A
:1016A0000192019A1A68B5490A401A606368002BD2
:1016B00052D0FFF75FFF0700AE4B1B689B0310D4AF
:1016C000FFF758FFC01B6428F6D9032068E2002EFC
:1016D000D4D0A84B1B689B0303D56368002B00D1B3
:1016E00060E223689B076DD5E3689A0605D5A1489B
:1016F000026820210A4302608B43042D3CD00C2D4C
:1017000038D0002B00D1B0E09A490A680920824302
:1017100013430B60FFF72EFF0600964B1B685B0719
:1017200000D599E0FFF726FF801B0228F5D903209A
:1017300036E2904A116880235B020B431360B5E7E1
:101740008C4B19688022D2020A431A6019688022E1
:1017500052020A431A60A9E7FFF70CFF0700854B06
:101760001B689B03BDD5FFF705FFC01B6428F6D996
:10177000032015E2002EC4D17E4A1268520702D51A
:10178000002B00D110E27B4E72687D490A4021692E
:1017900009020A437260326809218A4313433360A5
:1017A000FFF700FFF26812090F231340754AD35C5C
:1017B000D840754B1860754B1868FFF793FE0028EA
:1017C00000D0EDE12368DB062DD5002D60D1694BFB
:1017D0001B689B0503D5E369002B00D1E6E1654A50
:1017E00053686B490B40616A0B43536053681B029B
:1017F0001B0A216A09060B435360636A590B0131C6
:1018000080231B028B40D16809090F220A405D49E1
:101810008A5CD3405C4A13605C4B1868FFF762FE39
:10182000002800D0BCE123681B077DD56369002B2D
:1018300067D0504A136D01210B431365FFF79AFEE1
:1018400006004C4B1B6D9B076ED4FFF793FE801B6D
:101850000228F6D90320A3E146494B68484A1340C1
:101860002269120213434B60ACE7424A136801211C
:101870008B431360FFF77EFE06003E4B1B685B0741
:10188000A0D5FFF777FE801B0228F6D9032087E159
:10189000E369002B22D0374A116880235B000B4399
:1018A0001360FFF767FE0600324B1B689B0506D4EA
:1018B000FFF760FE801B0228F6D9032070E12D4A55
:1018C000536833490B40616A0B43536053681B02F2
:1018D0001B0A216A09060B435360A4E7254A1368D3
:1018E0002C490B401360FFF745FE0600214B1B6897
:1018F0009B0598D5FFF73EFE801B0228F6D90320F2
:101900004EE11C4A136D01218B431365FFF732FE34
:101910000600184B1B6D9B0706D5FFF72BFE801B9F
:101920000228F6D903203BE123685B0700D48EE050
:10193000104B9B6BDB001BD40E4A916B80235B0525
:101940000B4393630126144B1B68DB0528D5A36862
:1019500080225200934237D0002B4DD1054B1A6D97
:101960000C490A401A651A6D0C490A401A6531E0A3
:101970000026E8E700100240FFFFFEFFFFFFFBFF2D
:10198000FFE0FFFFC823000808000020040000203B
:10199000FF1FFFFFFFFEFFFF00700040FFFBFFFF88
:1019A000884A116880235B000B431360FFF7E2FD58
:1019B0000700844B1B68DB05C9D4FFF7DBFDC01BA8
:1019C0006428F6D90320EBE07F4A116D80235B0089
:1019D0000B431365A368002B28D0FFF7CBFD07004E
:1019E000794B1B6D9B0530D4FFF7C4FDC01B774BB3
:1019F0009842F5D90320D3E0A022D200934209D027
:101A0000714B1A6D72490A401A651A6D71490A4084
:101A10001A65DFE76C4B196D013AFF3A0A431A6504
:101A2000196D802252000A431A65D3E7FFF7A2FD21
:101A30000700654B1B6D9B0507D5FFF79BFDC01B82
:101A4000624B9842F5D90320AAE0012E21D02368E9
:101A50009B063CD5A369002B21D05B4B99680120E4
:101A6000014399605A6B02435A635B4A116A8023AF
:101A70009B010B431362FFF77DFD0600524B9B68F1
:101A80009B0724D4FFF776FD801B0228F6D903209C
:101A900086E04D4A936B51490B409363D7E74A4A1E
:101AA000936801218B4393604B4A136A4C490B4066
:101AB0001362FFF75FFD0600434B9B689B0706D54B
:101AC000FFF758FD801B0228F6D9032068E0A36ABF
:101AD000002B00D16CE00C2D49D0022B12D03A4AD9
:101AE000136840490B401360FFF744FD0400364B78
:101AF0001B689B0139D5FFF73DFD001B0228F6D975
:101B000003204DE0304A136836490B401360FFF75D
:101B100031FD05002C4B1B689B0106D5FFF72AFD04
:101B2000401B0228F6D903203AE02749CB682E4A09
:101B30001340E26A206B0243606B02431343CB60A5
:101B40000A6880235B0413430B60FFF713FD040056
:101B50001D4B1B689B0106D4FFF70CFD001B0228E0
:101B6000F6D903201CE000201AE0002018E0012B29
:101B700020D0154BDA6880235B021340E16A8B4268
:101B80001AD1F0239B031340216B8B4216D1C02343
:101B90001B041A40636B9A4212D1002000E001201E
:101BA00003B0F0BD0120FBE70120F9E70120F7E7D2
:101BB0000020F5E70120F3E70120F1E70120EFE73E
:101BC0000120EDE700700040001002408813000083
:101BD000FFFEFFFFFFFBFFFF00000140FFFFFFEFE5
:101BE000FFDFFFFFFFFFFFFEFFFF02FF70B50500F5
:101BF0000C00002800D1D1E06A4B1A680123134081
:101C00008B4219D32B689B0706D5674AD368F0210E
:101C10008B43A9680B43D3602B68DB077BD56B68CC
:101C2000022B20D0032B40D0012B44D05E4A1268F7
:101C300092051DD4012099E05A4A136801218B4373
:101C400023431360FFF796FC0600564B1A680123E6
:101C50001340A342D6D0FFF78DFC801B534A90421D
:101C6000F3D9032082E0504A1268920300D497E02F
:101C70004D49CA68032082431343CB60FFF77AFCC7
:101C800006006B68022B1CD0032B28D0012B34D00C
:101C9000454BDB680C221A423DD0FFF76BFC801BE2
:101CA000424B9842F4D9032060E03F4A1268920107
:101CB000DED401205AE03C4A12685207D8D40120F1
:101CC00054E0394BDA680C231340082B23D0FFF77C
:101CD00051FC801B354A9042F3D9032046E0324B39
:101CE000DA680C2313400C2B15D0FFF743FC801B44
:101CF0002E4B9842F3D9032038E02B4BDA680C23A3
:101D00001340042B07D0FFF735FC801B274B98426C
:101D1000F3D903202AE0234B1A6801231340A3427E
:101D200025D82B685B0706D51F4AD36820490B408E
:101D3000E9680B43D3602B681B0707D51A49CB68AA
:101D40001C4A13402A69D2001343CB60FFF72AFCD8
:101D5000154BDA6812090F231340174AD35CD84099
:101D6000164B1860164B1868FFF7BCFB70BD0D4A88
:101D7000136801218B4323431360FFF7FBFB06002D
:101D8000084B1A6801231340A342CAD0FFF7F2FBA5
:101D9000801B064B9842F3D90320E7E70120E5E7D3
:101DA0000120E3E7002002400010024088130000F9
:101DB000FFF8FFFFFFC7FFFFC8230008080000204F
:101DC0000400002070B5040082231B0102681A423F
:101DD0005CD0764B9B6BDB0000D59FE0734A916B28
:101DE00080235B050B4393630125714B1B68DB0567
:101DF00000D495E06D4B1A68C0239B031A406168BC
:101E00000B40934200D1A0E0C0239B020A001A407D
:101E10009A4200D1A1E0654B1A6DC0239B021000CD
:101E200018401A421FD01940814202D023689B06F5
:101E300008D4C0239B02A2681340834213D02368B6
:101E40001B0510D5594B186D5A4A02401E6D802152
:101E5000090331431965196D574E314019651A65EB
:101E6000C30500D580E06368C022920219001140CA
:101E7000914200D188E04D490B6DC022920260680A
:101E8000024013430B65012D00D187E02368DB0777
:101E900006D5464AD36C03218B43E1680B43D364D8
:101EA00023689B0706D5414AD36C0C218B432169DB
:101EB0000B43D36423685B0706D53C4AD36C3F4988
:101EC0000B4061690B43D36423681B0706D5374A6F
:101ED000D36C3B490B40A1690B43D3642368DB05FA
:101EE00006D5324AD36C33490B40E1690B43D364C6
:101EF00023685B0606D52D4AD36C32490B40616AD4
:101F00000B43D36423681B064ED5284AD36C2E4955
:101F10000B40216A0B43D364002046E0002564E7B0
:101F2000234A116880235B000B431360FFF722FBF9
:101F300006001F4B1B68DB0500D55BE7FFF71AFBAC
:101F4000801B6428F5D903202FE0C0239B03A068E1
:101F50000340934200D057E75DE7144B1B689B0397
:101F600000D458E7012020E0FFF704FB06000F4BE8
:101F70001B6D9B0500D576E7FFF7FCFA801B134B22
:101F80009842F4D9032010E008490A68104802403A
:101F9000C0208003034013430B606CE70A008B6B87
:101FA0000C490B40936371E7002070BD00100240A4
:101FB00000700040FFFFFCFFFFFFF7FFFFF3FFFF94
:101FC000FFCFFFFFFFFFFFFBFFFFF3FF88130000C2
:101FD000FFFFCFFFFFFFFFEFF0B5002357E084685E
:101FE0005F000326BE40B4432600CC68BC403443A7
:101FF0008460446894434A681609012232409A403A
:102000002243426053E0DC080834A400265805321D
:102010001A4092000F279740BE430F6997403A003D
:102020003243225057E0052600E00026A640340047
:102030003C4302329200474E9451474A1468EA43A7
:102040002600AE434F68FF0301D52C432600424CC7
:1020500026606468260016404F68BF0301D52C43F4
:1020600026003D4C6660A468260016404F68FF02BB
:1020700001D52C432600384CA660E46822404E6807
:10208000B60201D52A002243334CE26001330C68CA
:102090002200DA405DD001229A402500154014420A
:1020A000F4D003244E683440013C012C97D903221C
:1020B0004C682240032A09D0C2685E000324B44061
:1020C000A24314008A68B2402243C26003224C68D3
:1020D0002240022A97D004685E0003221700B7400E
:1020E000BC434F683A40B24022430260C022920291
:1020F0004C681442CAD0194C626B012632436263A9
:102100009A08941CA400134EA75903261E40B4003D
:102110000F26A640B743A026F605B04285D0104E44
:10212000B0420ED00F4EB0420DD00F4EB0420CD088
:102130000E4EB0420BD00E4EB04200D173E70626D1
:1021400074E7012672E7022670E703266EE704268D
:102150006CE7F0BD000001400004014000100240A7
:102160000004005000080050000C00500010005007
:10217000001C0050002A01D0816170478162FCE799
:10218000426913000B401B0491431943816170475E
:1021900070B5002811DB8308134EC0339B009D5996
:1021A00003242040C000FF2214008440A54389017D
:1021B0000A4082402A439A5170BD0F230340083BD6
:1021C0009B0806339B00094A944663445C680322DB
:1021D0001040C000FC3215008540AC4389010A4024
:1021E000824022435A60E7E700E100E000ED00E0B2
:1021F000013880235B0498420FD2094A5060094895
:10220000036A1B021B0AC02109060B430362002359
:10221000936007331360002070470120FCE7C0463D
:1022200010E000E000ED00E0704700000D4885463A
:102230000D480E490E4A002302E0D458C45004331E
:10224000C4188C42F9D30B4A0B4C002301E01360F5
:102250000432A242FBD3FFF7E7FF00F011F8FFF7CB
:102260000FF9FEE700500020000000207000002061
:10227000042500087000002094000020FEE7000004
:1022800070B500260C4D0D4C641BA410A64209D15C
:10229000002600F08DF80A4D0A4C641BA410A642DB
:1022A00005D170BDB300EB5898470136EEE7B30097
:1022B000EB5898470136F2E7FC240008FC2400089C
:1022C000FC2400080025000803008218934200D176
:1022D000704719700133F9E7062010B500F036F8A1
:1022E000012000F063F8002310B59A4200D110BD20
:1022F000CC5CC4540133F8E770B504000D001F290D
:1023000004D9162303600120404270BD436C002BAA
:1023100004D08A009B181A68002A08D1200000F017
:1023200031F82A000100200000F01AF8EDE7002043
:10233000012AEAD0511C03D1162301302360E4E7BF
:10234000002428001C6090472000DEE710B5034BF6
:1023500001001868FFF7D0FF10BDC0460C00002038
:10236000002370B5064D0400080011002B6000F03A
:1023700015F8431C03D12B68002B00D0236070BDDF
:102380009000002010B500F001F810BD5822012087
:10239000014B40421A6070479000002058220120F3
:1023A000014B40421A60704790000020FEE7C04693
:1023B000F8B5C046F8BC08BC9E467047F8B5C046A4
:0823C000F8BC08BC9E46704702
:1023C80000000000000000000102030406070809DD
:0C23D800030406080C1018203000000060
:1023E40074B20181B0AB308000000000800801812C
:1023F400B0B0ABF0000000003F020181B0AB308010
:102404000000000080060181B0B0ABF000000000C5
:102414009CDEFF7F01000000E0E0FF7FB0A90280A6
:1024240074E1FF7FB0B0A880C8E1FF7F0100000025
:10243400D4E1FF7FB0B0AA8008E2FF7FA4FFFF7F52
:10244400D0E2FF7F01000000CCE2FF7FAA3F398089
:1024540018E3FF7FB0B0A88024E3FF7FB0B0AA8068
:1024640064E3FF7FB0B0A88078E3FF7F0100000041
:1024740074E3FF7FB0B0A8807CE3FF7F010000001D
:102484000CE4FF7FAA0FB28074E4FF7F60FFFF7F3C
:1024940058E7FF7FB0B0A88074E7FF7F5CFFFF7F41
:1024A400E8E9FF7F0100000058EBFF7F008404800F
:1024B40068EBFF7FB0B0A88068EBFF7F48FFFF7F29
:1024C40050EEFF7F0084048074EEFF7FB0B0A880DC
:1024D4008CEEFF7F01000000DCEEFF7F00841E8095
:1024E40068EFFF7F0084068094EFFF7FB0B0AA807E
:0824F400C2EFFF7F01000000B0
:0424FC00E9000008EB
:04250000C10000080E
:102504000100000004000000000020001000002072
:1025140000000000000000000000000000000000B7
:1025240000000000000000000000000000000000A7
:102534000000000000000000000000000000000097
:102544000000000000000000000000000000000087
:102554000000000000000000000000000000000077
:102564000000000000000000000000000000000067
:040000050800222DA0
:00000001FF
